{
  "_format": "hh-sol-artifact-1",
  "contractName": "Vendor",
  "sourceName": "contracts/Vendor.sol",
  "abi": [
    {
      "inputs": [
        {
          "internalType": "address",
          "name": "tokenAddress",
          "type": "address"
        }
      ],
      "stateMutability": "nonpayable",
      "type": "constructor"
    },
    {
      "anonymous": false,
      "inputs": [
        {
          "indexed": false,
          "internalType": "address",
          "name": "buyer",
          "type": "address"
        },
        {
          "indexed": false,
          "internalType": "uint256",
          "name": "amountOfBNB",
          "type": "uint256"
        },
        {
          "indexed": false,
          "internalType": "uint256",
          "name": "amountOfTokens",
          "type": "uint256"
        }
      ],
      "name": "BuyTokens",
      "type": "event"
    },
    {
      "anonymous": false,
      "inputs": [
        {
          "indexed": true,
          "internalType": "address",
          "name": "previousOwner",
          "type": "address"
        },
        {
          "indexed": true,
          "internalType": "address",
          "name": "newOwner",
          "type": "address"
        }
      ],
      "name": "OwnershipTransferred",
      "type": "event"
    },
    {
      "inputs": [],
      "name": "buyTokens",
      "outputs": [
        {
          "internalType": "uint256",
          "name": "tokenAmount",
          "type": "uint256"
        }
      ],
      "stateMutability": "payable",
      "type": "function"
    },
    {
      "inputs": [],
      "name": "owner",
      "outputs": [
        {
          "internalType": "address",
          "name": "",
          "type": "address"
        }
      ],
      "stateMutability": "view",
      "type": "function"
    },
    {
      "inputs": [],
      "name": "renounceOwnership",
      "outputs": [],
      "stateMutability": "nonpayable",
      "type": "function"
    },
    {
      "inputs": [
        {
          "internalType": "uint256",
          "name": "tokenAmountToSell",
          "type": "uint256"
        }
      ],
      "name": "sellTokens",
      "outputs": [],
      "stateMutability": "nonpayable",
      "type": "function"
    },
    {
      "inputs": [],
      "name": "tokensPerBnb",
      "outputs": [
        {
          "internalType": "uint256",
          "name": "",
          "type": "uint256"
        }
      ],
      "stateMutability": "view",
      "type": "function"
    },
    {
      "inputs": [
        {
          "internalType": "address",
          "name": "newOwner",
          "type": "address"
        }
      ],
      "name": "transferOwnership",
      "outputs": [],
      "stateMutability": "nonpayable",
      "type": "function"
    },
    {
      "inputs": [],
      "name": "withdraw",
      "outputs": [],
      "stateMutability": "nonpayable",
      "type": "function"
    }
  ],
  "bytecode": "0x6080604052606460025534801561001557600080fd5b50604051610b94380380610b94833981016040819052610034916100b2565b61003d33610062565b600180546001600160a01b0319166001600160a01b03929092169190911790556100e0565b600080546001600160a01b038381166001600160a01b0319831681178455604051919092169283917f8be0079c531659141344cd1fd0a4f28419497f9722a3daafe3b4186f6b6457e09190a35050565b6000602082840312156100c3578081fd5b81516001600160a01b03811681146100d9578182fd5b9392505050565b610aa5806100ef6000396000f3fe6080604052600436106100705760003560e01c8063715018a61161004e578063715018a6146100d55780638da5cb5b146100ea578063d0febe4c14610112578063f2fde38b1461011a57600080fd5b80633ccfd60b146100755780633ea8f9ab1461008c5780636c11bcd3146100b5575b600080fd5b34801561008157600080fd5b5061008a61013a565b005b34801561009857600080fd5b506100a260025481565b6040519081526020015b60405180910390f35b3480156100c157600080fd5b5061008a6100d03660046109bf565b610277565b3480156100e157600080fd5b5061008a6105e3565b3480156100f657600080fd5b506000546040516001600160a01b0390911681526020016100ac565b6100a2610619565b34801561012657600080fd5b5061008a610135366004610971565b610886565b6000546001600160a01b0316331461016d5760405162461bcd60e51b8152600401610164906109ef565b60405180910390fd5b47806101c55760405162461bcd60e51b815260206004820152602160248201527f4f776e657220686173206e6f742062616c616e636520746f20776974686472616044820152607760f81b6064820152608401610164565b604051600090339047908381818185875af1925050503d8060008114610207576040519150601f19603f3d011682016040523d82523d6000602084013e61020c565b606091505b50509050806102735760405162461bcd60e51b815260206004820152602d60248201527f4661696c656420746f2073656e6420757365722062616c616e6365206261636b60448201526c103a37903a34329037bbb732b960991b6064820152608401610164565b5050565b600081116102dc5760405162461bcd60e51b815260206004820152602c60248201527f5370656369667920616e20616d6f756e74206f6620746f6b656e20677265617460448201526b6572207468616e207a65726f60a01b6064820152608401610164565b6001546040516370a0823160e01b81523360048201526000916001600160a01b0316906370a082319060240160206040518083038186803b15801561032057600080fd5b505afa158015610334573d6000803e3d6000fd5b505050506040513d601f19601f8201168201806040525081019061035891906109d7565b9050818110156103d2576040805162461bcd60e51b81526020600482015260248101919091527f596f75722062616c616e6365206973206c6f776572207468616e20746865206160448201527f6d6f756e74206f6620746f6b656e7320796f752077616e7420746f2073656c6c6064820152608401610164565b6000600254836103e29190610a24565b905047818110156104545760405162461bcd60e51b815260206004820152603660248201527f56656e646f7220686173206e6f7420656e6f7567682066756e647320746f206160448201527518d8d95c1d081d1a19481cd95b1b081c995c5d595cdd60521b6064820152608401610164565b6001546040516323b872dd60e01b8152336004820152306024820152604481018690526000916001600160a01b0316906323b872dd90606401602060405180830381600087803b1580156104a757600080fd5b505af11580156104bb573d6000803e3d6000fd5b505050506040513d601f19601f820116820180604052508101906104df919061099f565b9050806105445760405162461bcd60e51b815260206004820152602d60248201527f4661696c656420746f207472616e7366657220746f6b656e732066726f6d207560448201526c39b2b9103a37903b32b73237b960991b6064820152608401610164565b60405133908490600081818185875af1925050503d8060008114610584576040519150601f19603f3d011682016040523d82523d6000602084013e610589565b606091505b505080915050806105dc5760405162461bcd60e51b815260206004820152601e60248201527f4661696c656420746f2073656e6420424e4220746f20746865207573657200006044820152606401610164565b5050505050565b6000546001600160a01b0316331461060d5760405162461bcd60e51b8152600401610164906109ef565b6106176000610921565b565b600080341161066a5760405162461bcd60e51b815260206004820152601b60248201527f53656e6420424e4220746f2062757920736f6d6520746f6b656e7300000000006044820152606401610164565b60006002543461067a9190610a44565b6001546040516370a0823160e01b81523060048201529192506000916001600160a01b03909116906370a082319060240160206040518083038186803b1580156106c357600080fd5b505afa1580156106d7573d6000803e3d6000fd5b505050506040513d601f19601f820116820180604052508101906106fb91906109d7565b90508181101561076a5760405162461bcd60e51b815260206004820152603460248201527f56656e646f7220636f6e747261637420686173206e6f7420656e6f75676820746044820152736f6b656e7320696e206974732062616c616e636560601b6064820152608401610164565b60015460405163a9059cbb60e01b8152336004820152602481018490526000916001600160a01b03169063a9059cbb90604401602060405180830381600087803b1580156107b757600080fd5b505af11580156107cb573d6000803e3d6000fd5b505050506040513d601f19601f820116820180604052508101906107ef919061099f565b90508061083e5760405162461bcd60e51b815260206004820181905260248201527f4661696c656420746f207472616e7366657220746f6b656e20746f20757365726044820152606401610164565b604080513381523460208201529081018490527f0a37b72bb67eee30e09084cf386f8a17817c57f620c3ab95fb25d6a20356ec779060600160405180910390a1509092915050565b6000546001600160a01b031633146108b05760405162461bcd60e51b8152600401610164906109ef565b6001600160a01b0381166109155760405162461bcd60e51b815260206004820152602660248201527f4f776e61626c653a206e6577206f776e657220697320746865207a65726f206160448201526564647265737360d01b6064820152608401610164565b61091e81610921565b50565b600080546001600160a01b038381166001600160a01b0319831681178455604051919092169283917f8be0079c531659141344cd1fd0a4f28419497f9722a3daafe3b4186f6b6457e09190a35050565b600060208284031215610982578081fd5b81356001600160a01b0381168114610998578182fd5b9392505050565b6000602082840312156109b0578081fd5b81518015158114610998578182fd5b6000602082840312156109d0578081fd5b5035919050565b6000602082840312156109e8578081fd5b5051919050565b6020808252818101527f4f776e61626c653a2063616c6c6572206973206e6f7420746865206f776e6572604082015260600190565b600082610a3f57634e487b7160e01b81526012600452602481fd5b500490565b6000816000190483118215151615610a6a57634e487b7160e01b81526011600452602481fd5b50029056fea2646970667358221220da806b7648827c91b83461f777f735bc95a36da6f5c44bcdf51af36293c52a1564736f6c63430008040033",
  "linkReferences": {},
  "deployedLinkReferences": {}
}