{
  "_format": "hh-sol-artifact-1",
  "contractName": "Vendor",
  "sourceName": "contracts/Vendor.sol",
  "abi": [
    {
      "inputs": [
        {
          "internalType": "address",
          "name": "tokenAddress",
          "type": "address"
        }
      ],
      "stateMutability": "nonpayable",
      "type": "constructor"
    },
    {
      "anonymous": false,
      "inputs": [
        {
          "indexed": false,
          "internalType": "address",
          "name": "buyer",
          "type": "address"
        },
        {
          "indexed": false,
          "internalType": "uint256",
          "name": "amountOfETH",
          "type": "uint256"
        },
        {
          "indexed": false,
          "internalType": "uint256",
          "name": "amountOfTokens",
          "type": "uint256"
        }
      ],
      "name": "BuyTokens",
      "type": "event"
    },
    {
      "anonymous": false,
      "inputs": [
        {
          "indexed": true,
          "internalType": "address",
          "name": "previousOwner",
          "type": "address"
        },
        {
          "indexed": true,
          "internalType": "address",
          "name": "newOwner",
          "type": "address"
        }
      ],
      "name": "OwnershipTransferred",
      "type": "event"
    },
    {
      "inputs": [],
      "name": "buyTokens",
      "outputs": [
        {
          "internalType": "uint256",
          "name": "tokenAmount",
          "type": "uint256"
        }
      ],
      "stateMutability": "payable",
      "type": "function"
    },
    {
      "inputs": [],
      "name": "owner",
      "outputs": [
        {
          "internalType": "address",
          "name": "",
          "type": "address"
        }
      ],
      "stateMutability": "view",
      "type": "function"
    },
    {
      "inputs": [],
      "name": "renounceOwnership",
      "outputs": [],
      "stateMutability": "nonpayable",
      "type": "function"
    },
    {
      "inputs": [
        {
          "internalType": "uint256",
          "name": "tokenAmountToSell",
          "type": "uint256"
        }
      ],
      "name": "sellTokens",
      "outputs": [],
      "stateMutability": "nonpayable",
      "type": "function"
    },
    {
      "inputs": [],
      "name": "tokensPerEth",
      "outputs": [
        {
          "internalType": "uint256",
          "name": "",
          "type": "uint256"
        }
      ],
      "stateMutability": "view",
      "type": "function"
    },
    {
      "inputs": [
        {
          "internalType": "address",
          "name": "newOwner",
          "type": "address"
        }
      ],
      "name": "transferOwnership",
      "outputs": [],
      "stateMutability": "nonpayable",
      "type": "function"
    },
    {
      "inputs": [],
      "name": "withdraw",
      "outputs": [],
      "stateMutability": "nonpayable",
      "type": "function"
    }
  ],
  "bytecode": "0x608060405260646002553480156200001657600080fd5b50604051620017453803806200174583398181016040528101906200003c919062000187565b6200005c62000050620000a460201b60201c565b620000ac60201b60201c565b80600160006101000a81548173ffffffffffffffffffffffffffffffffffffffff021916908373ffffffffffffffffffffffffffffffffffffffff1602179055505062000201565b600033905090565b60008060009054906101000a900473ffffffffffffffffffffffffffffffffffffffff169050816000806101000a81548173ffffffffffffffffffffffffffffffffffffffff021916908373ffffffffffffffffffffffffffffffffffffffff1602179055508173ffffffffffffffffffffffffffffffffffffffff168173ffffffffffffffffffffffffffffffffffffffff167f8be0079c531659141344cd1fd0a4f28419497f9722a3daafe3b4186f6b6457e060405160405180910390a35050565b6000815190506200018181620001e7565b92915050565b6000602082840312156200019a57600080fd5b6000620001aa8482850162000170565b91505092915050565b6000620001c082620001c7565b9050919050565b600073ffffffffffffffffffffffffffffffffffffffff82169050919050565b620001f281620001b3565b8114620001fe57600080fd5b50565b61153480620002116000396000f3fe6080604052600436106100705760003560e01c80638da5cb5b1161004e5780638da5cb5b146100cc578063cbdd69b5146100f7578063d0febe4c14610122578063f2fde38b1461014057610070565b80633ccfd60b146100755780636c11bcd31461008c578063715018a6146100b5575b600080fd5b34801561008157600080fd5b5061008a610169565b005b34801561009857600080fd5b506100b360048036038101906100ae9190610bb4565b6102dd565b005b3480156100c157600080fd5b506100ca610614565b005b3480156100d857600080fd5b506100e161069c565b6040516100ee9190610e00565b60405180910390f35b34801561010357600080fd5b5061010c6106c5565b6040516101199190611032565b60405180910390f35b61012a6106cb565b6040516101379190611032565b60405180910390f35b34801561014c57600080fd5b5061016760048036038101906101629190610b62565b61094a565b005b610171610a42565b73ffffffffffffffffffffffffffffffffffffffff1661018f61069c565b73ffffffffffffffffffffffffffffffffffffffff16146101e5576040517f08c379a00000000000000000000000000000000000000000000000000000000081526004016101dc90610f92565b60405180910390fd5b60004790506000811161022d576040517f08c379a000000000000000000000000000000000000000000000000000000000815260040161022490610fd2565b60405180910390fd5b60003373ffffffffffffffffffffffffffffffffffffffff164760405161025390610deb565b60006040518083038185875af1925050503d8060008114610290576040519150601f19603f3d011682016040523d82523d6000602084013e610295565b606091505b50509050806102d9576040517f08c379a00000000000000000000000000000000000000000000000000000000081526004016102d090610fb2565b60405180910390fd5b5050565b60008111610320576040517f08c379a000000000000000000000000000000000000000000000000000000000815260040161031790610f72565b60405180910390fd5b6000600160009054906101000a900473ffffffffffffffffffffffffffffffffffffffff1673ffffffffffffffffffffffffffffffffffffffff166370a08231336040518263ffffffff1660e01b815260040161037d9190610e00565b60206040518083038186803b15801561039557600080fd5b505afa1580156103a9573d6000803e3d6000fd5b505050506040513d601f19601f820116820180604052508101906103cd9190610bdd565b905081811015610412576040517f08c379a000000000000000000000000000000000000000000000000000000000815260040161040990610f12565b60405180910390fd5b6000600254836104229190611069565b905060004790508181101561046c576040517f08c379a000000000000000000000000000000000000000000000000000000000815260040161046390610eb2565b60405180910390fd5b6000600160009054906101000a900473ffffffffffffffffffffffffffffffffffffffff1673ffffffffffffffffffffffffffffffffffffffff166323b872dd3330886040518463ffffffff1660e01b81526004016104cd93929190610e1b565b602060405180830381600087803b1580156104e757600080fd5b505af11580156104fb573d6000803e3d6000fd5b505050506040513d601f19601f8201168201806040525081019061051f9190610b8b565b905080610561576040517f08c379a000000000000000000000000000000000000000000000000000000000815260040161055890610f32565b60405180910390fd5b3373ffffffffffffffffffffffffffffffffffffffff168360405161058590610deb565b60006040518083038185875af1925050503d80600081146105c2576040519150601f19603f3d011682016040523d82523d6000602084013e6105c7565b606091505b5050809150508061060d576040517f08c379a000000000000000000000000000000000000000000000000000000000815260040161060490610ff2565b60405180910390fd5b5050505050565b61061c610a42565b73ffffffffffffffffffffffffffffffffffffffff1661063a61069c565b73ffffffffffffffffffffffffffffffffffffffff1614610690576040517f08c379a000000000000000000000000000000000000000000000000000000000815260040161068790610f92565b60405180910390fd5b61069a6000610a4a565b565b60008060009054906101000a900473ffffffffffffffffffffffffffffffffffffffff16905090565b60025481565b600080341161070f576040517f08c379a000000000000000000000000000000000000000000000000000000000815260040161070690610ef2565b60405180910390fd5b60006002543461071f919061109a565b90506000600160009054906101000a900473ffffffffffffffffffffffffffffffffffffffff1673ffffffffffffffffffffffffffffffffffffffff166370a08231306040518263ffffffff1660e01b815260040161077e9190610e00565b60206040518083038186803b15801561079657600080fd5b505afa1580156107aa573d6000803e3d6000fd5b505050506040513d601f19601f820116820180604052508101906107ce9190610bdd565b905081811015610813576040517f08c379a000000000000000000000000000000000000000000000000000000000815260040161080a90610f52565b60405180910390fd5b6000600160009054906101000a900473ffffffffffffffffffffffffffffffffffffffff1673ffffffffffffffffffffffffffffffffffffffff1663a9059cbb33856040518363ffffffff1660e01b8152600401610872929190610e52565b602060405180830381600087803b15801561088c57600080fd5b505af11580156108a0573d6000803e3d6000fd5b505050506040513d601f19601f820116820180604052508101906108c49190610b8b565b905080610906576040517f08c379a00000000000000000000000000000000000000000000000000000000081526004016108fd90611012565b60405180910390fd5b7f0a37b72bb67eee30e09084cf386f8a17817c57f620c3ab95fb25d6a20356ec7733348560405161093993929190610e7b565b60405180910390a182935050505090565b610952610a42565b73ffffffffffffffffffffffffffffffffffffffff1661097061069c565b73ffffffffffffffffffffffffffffffffffffffff16146109c6576040517f08c379a00000000000000000000000000000000000000000000000000000000081526004016109bd90610f92565b60405180910390fd5b600073ffffffffffffffffffffffffffffffffffffffff168173ffffffffffffffffffffffffffffffffffffffff161415610a36576040517f08c379a0000000000000000000000000000000000000000000000000000000008152600401610a2d90610ed2565b60405180910390fd5b610a3f81610a4a565b50565b600033905090565b60008060009054906101000a900473ffffffffffffffffffffffffffffffffffffffff169050816000806101000a81548173ffffffffffffffffffffffffffffffffffffffff021916908373ffffffffffffffffffffffffffffffffffffffff1602179055508173ffffffffffffffffffffffffffffffffffffffff168173ffffffffffffffffffffffffffffffffffffffff167f8be0079c531659141344cd1fd0a4f28419497f9722a3daafe3b4186f6b6457e060405160405180910390a35050565b600081359050610b1d816114b9565b92915050565b600081519050610b32816114d0565b92915050565b600081359050610b47816114e7565b92915050565b600081519050610b5c816114e7565b92915050565b600060208284031215610b7457600080fd5b6000610b8284828501610b0e565b91505092915050565b600060208284031215610b9d57600080fd5b6000610bab84828501610b23565b91505092915050565b600060208284031215610bc657600080fd5b6000610bd484828501610b38565b91505092915050565b600060208284031215610bef57600080fd5b6000610bfd84828501610b4d565b91505092915050565b610c0f816110f4565b82525050565b6000610c22603683611058565b9150610c2d8261119a565b604082019050919050565b6000610c45602683611058565b9150610c50826111e9565b604082019050919050565b6000610c68601b83611058565b9150610c7382611238565b602082019050919050565b6000610c8b604083611058565b9150610c9682611261565b604082019050919050565b6000610cae602d83611058565b9150610cb9826112b0565b604082019050919050565b6000610cd1603483611058565b9150610cdc826112ff565b604082019050919050565b6000610cf4602c83611058565b9150610cff8261134e565b604082019050919050565b6000610d17602083611058565b9150610d228261139d565b602082019050919050565b6000610d3a602d83611058565b9150610d45826113c6565b604082019050919050565b6000610d5d60008361104d565b9150610d6882611415565b600082019050919050565b6000610d80602183611058565b9150610d8b82611418565b604082019050919050565b6000610da3601e83611058565b9150610dae82611467565b602082019050919050565b6000610dc6602083611058565b9150610dd182611490565b602082019050919050565b610de581611132565b82525050565b6000610df682610d50565b9150819050919050565b6000602082019050610e156000830184610c06565b92915050565b6000606082019050610e306000830186610c06565b610e3d6020830185610c06565b610e4a6040830184610ddc565b949350505050565b6000604082019050610e676000830185610c06565b610e746020830184610ddc565b9392505050565b6000606082019050610e906000830186610c06565b610e9d6020830185610ddc565b610eaa6040830184610ddc565b949350505050565b60006020820190508181036000830152610ecb81610c15565b9050919050565b60006020820190508181036000830152610eeb81610c38565b9050919050565b60006020820190508181036000830152610f0b81610c5b565b9050919050565b60006020820190508181036000830152610f2b81610c7e565b9050919050565b60006020820190508181036000830152610f4b81610ca1565b9050919050565b60006020820190508181036000830152610f6b81610cc4565b9050919050565b60006020820190508181036000830152610f8b81610ce7565b9050919050565b60006020820190508181036000830152610fab81610d0a565b9050919050565b60006020820190508181036000830152610fcb81610d2d565b9050919050565b60006020820190508181036000830152610feb81610d73565b9050919050565b6000602082019050818103600083015261100b81610d96565b9050919050565b6000602082019050818103600083015261102b81610db9565b9050919050565b60006020820190506110476000830184610ddc565b92915050565b600081905092915050565b600082825260208201905092915050565b600061107482611132565b915061107f83611132565b92508261108f5761108e61116b565b5b828204905092915050565b60006110a582611132565b91506110b083611132565b9250817fffffffffffffffffffffffffffffffffffffffffffffffffffffffffffffffff04831182151516156110e9576110e861113c565b5b828202905092915050565b60006110ff82611112565b9050919050565b60008115159050919050565b600073ffffffffffffffffffffffffffffffffffffffff82169050919050565b6000819050919050565b7f4e487b7100000000000000000000000000000000000000000000000000000000600052601160045260246000fd5b7f4e487b7100000000000000000000000000000000000000000000000000000000600052601260045260246000fd5b7f56656e646f7220686173206e6f7420656e6f7567682066756e647320746f206160008201527f6363657074207468652073656c6c207265717565737400000000000000000000602082015250565b7f4f776e61626c653a206e6577206f776e657220697320746865207a65726f206160008201527f6464726573730000000000000000000000000000000000000000000000000000602082015250565b7f53656e642045544820746f2062757920736f6d6520746f6b656e730000000000600082015250565b7f596f75722062616c616e6365206973206c6f776572207468616e20746865206160008201527f6d6f756e74206f6620746f6b656e7320796f752077616e7420746f2073656c6c602082015250565b7f4661696c656420746f207472616e7366657220746f6b656e732066726f6d207560008201527f73657220746f2076656e646f7200000000000000000000000000000000000000602082015250565b7f56656e646f7220636f6e747261637420686173206e6f7420656e6f756768207460008201527f6f6b656e7320696e206974732062616c616e6365000000000000000000000000602082015250565b7f5370656369667920616e20616d6f756e74206f6620746f6b656e20677265617460008201527f6572207468616e207a65726f0000000000000000000000000000000000000000602082015250565b7f4f776e61626c653a2063616c6c6572206973206e6f7420746865206f776e6572600082015250565b7f4661696c656420746f2073656e6420757365722062616c616e6365206261636b60008201527f20746f20746865206f776e657200000000000000000000000000000000000000602082015250565b50565b7f4f776e657220686173206e6f742062616c616e636520746f207769746864726160008201527f7700000000000000000000000000000000000000000000000000000000000000602082015250565b7f4661696c656420746f2073656e642045544820746f2074686520757365720000600082015250565b7f4661696c656420746f207472616e7366657220746f6b656e20746f2075736572600082015250565b6114c2816110f4565b81146114cd57600080fd5b50565b6114d981611106565b81146114e457600080fd5b50565b6114f081611132565b81146114fb57600080fd5b5056fea2646970667358221220c90bd0c034a54088c0c320631dab6083db44fee4c5856c491e39a6b8da6fb5ed64736f6c63430008040033",
  "linkReferences": {},
  "deployedLinkReferences": {}
}